:020000040800F2
:10000000600400209D0100089B110008AD0F00084E
:1000100099110008A90200081F1300080000000041
:100020000000000000000000000000009F11000818
:10003000AB020008000000009D110008A11100089B
:10004000B7010008B7010008B7010008B7010008B0
:10005000B7010008B7010008B7010008B7010008A0
:10006000B7010008B7010008B7010008B701000890
:10007000B7010008B7010008B7010008B701000880
:10008000B7010008B7010008B7010008B701000870
:10009000B7010008B7010008B7010008B701000860
:1000A000B7010008B7010008B7010008B701000850
:1000B000B7010008B7010008B7010008B701000840
:1000C000B7010008B7010008B7010008B701000830
:1000D000B7010008B7010008B7010008B701000820
:1000E000B7010008B7010008B7010008B701000810
:1000F000B7010008B7010008B7010008B701000800
:10010000000000000000000000000000B70100082F
:10011000B7010008B7010008B7010008B7010008DF
:10012000B7010008B7010008B7010008B7010008CF
:10013000B7010008B701000800000000000000003F
:10014000B7010008B7010008B7010008000000006F
:10015000000000000000000000000000000000009F
:100160000000000000000000B7010008B70100080F
:10017000B7010008000000000000000000000000BF
:1001800000000000B7010008DFF80CD000F07AF89A
:1001900000480047791300086004002006488047A3
:1001A00006480047FEE7FEE7FEE7FEE7FEE7FEE75C
:1001B000FEE7FEE7FEE7FEE7F5110008890100080B
:1001C0002DE9F05F0546002092469B46884606468C
:1001D000814640241BE0284641464746224600F01F
:1001E00020F853465A46C01A914110D3114618467A
:1001F000224600F038F82D1A67EB01084F462246D8
:100200000120002100F02FF817EB00094E41201EBD
:10021000A4F10104DFDC484631462A464346BDE8E6
:10022000F09F202A04DB203A21FA02F000217047D7
:1002300021FA02F3D040C2F120029140084319464E
:100240007047D2B201E000F8012B491EFBD2704783
:100250000022F6E710B513460A4604461946FFF792
:10026000F0FF204610BD202A04DB203A00FA02F1FC
:10027000002070479140C2F1200320FA03F3194394
:1002800090407047064C074D06E0E06840F00103DF
:1002900094E8070098471034AC42F6D3FFF778FF94
:1002A0005C1400087C140008FEE7704770B5044633
:1002B00000F0F0F80546601C02D0044800780444C1
:1002C00000F0E8F8401BA042FAD370BD0000002007
:1002D0002DE9FC4FDFF894A1002301250AF1040B5E
:1002E00003244FF00F0C0BF1040EB8E005FA03F6EF
:1002F00032406FD04F68012F05D0022F03D0112F4D
:1003000001D0122F17D1D0F808905F0004FA07F837
:1003100029EA08090097D1F80C8008FA07F848EA9A
:100320000908C0F808804768B7430E79C6F300167D
:100330009E403E434660C6684FEA430804FA08F709
:10034000BE4301978F6807FA08F73743C7604E68C6
:10035000022E01D0122E13D1DE0800EB8606009685
:10036000366A5F07FF0E0CFA07F926EA0906D1F88C
:10037000109009FA07F949EA0609009EC6F820908C
:100380000668019FBE430F7907F0030707FA08F7D5
:10039000374307604E68F60060D5354EB76947F0C1
:1003A0000107B761B66923F0030706F0010600965E
:1003B000304E3E44B146B6689F074FEA17780CFAB4
:1003C00008F7BE43B0F1904F05D02B4FB84204D18F
:1003D000012712E042E000270FE0284FB84201D188
:1003E00002270AE0264FB84201D1032705E0254F36
:1003F000B84201D1042700E0052707FA08F7374380
:10040000C9F80870DAF800605746D1F804809643BE
:100410005FEAC83800D516433E60DBF800605F46EF
:10042000D1F8048096435FEA883800D516433E60D1
:10043000DEF800607746D1F8048096435FEAC8286A
:1004400000D516433E60094F0C373E68D1F8048052
:1004500096435FEA882800D516433E605B1C0A6815
:1004600032FA03F67FF442AFBDE8FC8F000401408E
:10047000001002400000014000040048000800484D
:10048000000C0048001000480AB181617047816289
:10049000704700000148806870470000000000209D
:1004A0000248816802781144816070470000002092
:1004B000074810B5016841F010010160032000F009
:1004C0005FF8002000F006F800F024F8002010BDCE
:1004D0000020024070B50D4D04464FF47A71287823
:1004E000B1FBF0F00A490968B1FBF0F000F018FC2C
:1004F00048B9102C07D200222146501E00F020F8E7
:1005000000206C6070BD012070BD00000000002064
:100510000C000020094808B5816941F001018161A2
:10052000816901F001010091C16941F08051C1610F
:10053000C06900F08050009008BD0000001002402B
:10054000F0B40E4B1B680C46C3F30223C3F107053E
:10055000042D00D90425191D072901D2002300E02C
:10056000DB1E012606FA05F1491E214099409E40F6
:10057000761E16403143F0BC00F0D2BE0CED00E018
:10058000064900F0070208684FF6FF03184040EAEA
:100590000220034A10430860704700000CED00E0A1
:1005A0000000FA052DE9F0470F46050069D04A4ED4
:1005B000306800F00700B84209D2306820F0070028
:1005C00038433060306800F00700B84259D12878CD
:1005D000424C800705D56068A96820F0F000084308
:1005E00060602878C0073DD06968012001290DD0DE
:1005F000022923D05FF0020393FAA3F2B2FA82F247
:1006000042F02002520904D0226803E04FF4003384
:10061000F2E7626A93FAA3F3B3FA83F303F01F03DA
:10062000984002422DD0606820F0030008436060CB
:10063000FFF730FF804641F288390CE04FF000733D
:10064000DAE700BFFFF726FFA0EB0801494502D912
:100650000320BDE8F0876068696800F00C00B0EB2B
:10066000810FEFD1306800F00700B8420BD9306835
:1006700020F0070038433060306800F00700B842CF
:1006800001D00120E5E72878400705D56068E968D2
:1006900020F4E060084360602878000706D56068B1
:1006A000296920F4605040EAC100606000F01EF843
:1006B0006168F02292FAA2F201F0F001B2FA82F23D
:1006C000D140074A515CC8400649086006480068A6
:1006D000FFF700FF0020BCE70020024000100240AE
:1006E0004C1400080C00002004000020164A10B52D
:1006F0005168164801F00C03042B20D0082B1ED1A2
:100700004FF4701494FAA4F401F47013B4FA84F45E
:10071000E3400F4CD26AE45C0F2393FAA3F302F098
:100720000F02B3FA83F3DA40094B1033C9039A5C22
:1007300006D500231946FFF743FDA0FB040110BDB9
:100740000448A4FB000110BD0010024000127A0012
:100750002C14000800093D002DE9F84F050071D068
:100760002878FC4EC0074FF0010425D0706867045C
:10077000C0F38100012807D07068C0F3810002280F
:100780001BD17068C00318D597FAA7F0B0FA80F0B3
:1007900040F02000400901D0306800E0706A97FA0C
:1007A000A7F1B1FA81F101F01F0104FA01F1084249
:1007B00065D068680028D2D061E06868B0F5803FF5
:1007C0000BD010B1B0F5A02F17D0306820F48030D6
:1007D0003060306820F4802002E0306840F48030DF
:1007E0003060F06AA96820F00F000843F062686882
:1007F00020B3FFF74FFE80460AE0306840F48020C7
:100800003060EAE7FFF746FEA0EB0800642871D8E5
:1008100097FAA7F0B0FA80F040F02000400901D02C
:10082000306800E0706A97FAA7F1B1FA81F101F03F
:100830001F0104FA01F10842E4D020E0FFF72AFE8C
:10084000804607E0C2E000BFFFF724FEA0EB0800EF
:100850006428DCD897FAA7F0B0FA80F040F02000C6
:10086000400901D0306800E0706A97FAA7F1B1FA48
:1008700081F101F01F0104FA01F10842E4D1287866
:10088000DFF8D48280074FF0000A4FF0020730D51E
:1008900070684FF0F80B10F00C0F07D07068C0F3C1
:1008A0008100022827D17068C00324D497FAA7F0EA
:1008B000B0FA80F040F02000400901D0306800E03C
:1008C000706A97FAA7F1B1FA81F101F01F0104FAF9
:1008D00001F1084202D02869012877D130689BFADB
:1008E000ABF220F0F8016869B2FA82F2904001435D
:1008F00031605AE064E1286988B394FAA4F0B0FA50
:1009000080F048F82040FFF7C5FD814606E000BFB3
:10091000FFF7C0FDA0EB090002289AD897FAA7F0CC
:10092000B0FA80F040F02000400901D0306800E0CB
:10093000706A97FAA7F1B1FA81F101F01F0104FA88
:1009400001F10842E4D030689BFAABF26969B2FA6F
:1009500082F220F0F80091400843306025E0FFE784
:1009600094FAA4F0B0FA80F048F820A0FFF792FDC6
:10097000814605E0FFF78EFDA0EB09000228CCD8E8
:1009800097FAA7F0B0FA80F040F02000400901D0BB
:10099000306800E0706A97FAA7F1B1FA81F101F0CE
:1009A0001F0104FA01F10842E4D1287800076CD550
:1009B000A869A8B394FAA4F0B0FA80F008EB80001C
:1009C000C0F88044FFF766FD814607E0A4E100BF60
:1009D000FFF760FDA0EB090002289ED897FAA7F068
:1009E000B0FA80F040F06000B4EB501F01D13068E5
:1009F0000BE097FAA7F0B0FA80F040F06000B7EB98
:100A0000501F01D1306A00E0706A97FAA7F1B1FA7D
:100A100081F101F01F0104FA01F21042D8D034E054
:100A2000FFE794FAA4F1B1FA81F108EB8101C1F872
:100A300080A4FFF72FFD814606E000BFFFF72AFDE7
:100A4000A0EB090002289AD897FAA7F0B0FA80F034
:100A500040F06000B4EB501F01D130680BE097FA12
:100A6000A7F0B0FA80F040F06000B7EB501F01D162
:100A7000306A00E0706A97FAA7F1B1FA81F101F0EB
:100A80001F0104FA01F21042D8D12878400768D536
:100A9000F0694FF00009C00009D4F06940F08050BF
:100AA000F061F0694FF0010900F0805000902B4890
:100AB0000168C90512D4016841F480710160FFF733
:100AC000E9FC834606E000BFFFF7E4FCA0EB0B0067
:100AD000642875D821480068C005F5D5E868012864
:100AE0000AD008B1052811D0306A20F00100306228
:100AF000306A20F0040002E0306A40F00100306209
:100B0000E86868B3FFF7C6FC83460DE0306A40F042
:100B100004003062F0E700BFFFF7BCFCA0EB0B0164
:100B200041F2883081424BD897FAA7F0B0FA80F0B2
:100B300040F04000B4EB501F01D1306813E097FA49
:100B4000A7F0B0FA80F040F04000B7EB501F09D199
:100B5000306A08E00010024000004242007000408D
:100B60000CE040E0706A97FAA7F1B1FA81F101F068
:100B70001F0104FA01F21042CED02DE0FFF78AFCEB
:100B8000834607E0FFF786FCA0EB0B0141F28830BB
:100B9000814215D897FAA7F0B0FA80F040F04000F3
:100BA000B4EB501F01D130680CE097FAA7F0B0FA0F
:100BB00080F040F04000B7EB501F02D1306A01E0F6
:100BC00083E0706A97FAA7F1B1FA81F101F01F0191
:100BD00004FA01F21042D5D1B9F1000F03D0F06947
:100BE00020F08050F061E86980B37168C1F3810141
:100BF000022977D04FF080714F000228504609D06B
:100C000091FAA1F1B1FA81F148F82100FFF742FC15
:100C100005465DE0894691FAA1F1B1FA81F1C2463B
:100C200048F82100FFF736FC804605E0FFF732FC6C
:100C3000A0EB0800022848D897FAA7F0B0FA80F095
:100C400040F02000400902D0306801E066E0706AA0
:100C500097FAA7F1B1FA81F101F01F0104FA01F14D
:100C60000842E3D1D5E908100843716821F47411F2
:100C70000843706099FAA9F0B0FA80F04AF8204071
:100C8000FFF708FC054604E0FFF704FC401B0228C0
:100C90001BD897FAA7F0B0FA80F040F02000400986
:100CA00001D0306800E0706A97FAA7F1B1FA81F1DB
:100CB00001F01F0104FA01F10842E5D02EE000BF67
:100CC000FFF7E8FB401B022802D90320BDE8F88F9C
:100CD00097FAA7F0B0FA80F040F02000400902D067
:100CE000306801E00BE0706A97FAA7F1B1FA81F180
:100CF00001F01F0104FA01F10842E1D10EE00128E0
:100D0000E4D070682A6A00F48031914204D1696AA3
:100D100000F47010884201D00120D7E70020D5E709
:100D200010B5401EB0F1807F01D3012010BD4FF0FF
:100D3000E02460610F21601700F0F2FA0020A0614A
:100D400007202061002010BDF0B590F83C20012A5A
:100D500036D0012480F83C40022280F83D20026811
:100D600053689568174E184FB24201D0BA4204D169
:100D700023F4700C4B6843EA0C0323F0700C0B68EF
:100D800043EA0C0353600268B2420DD0B2F1804FC7
:100D90000AD00E4B9A4207D00D4B9A4204D0BA4269
:100DA00002D00C4B9A4204D1896825F08003194384
:100DB000916080F83D40002180F83C100846F0BD6D
:100DC0000220F0BD002C014000340140000400402E
:100DD000000800400040014010B5040003D094F822
:100DE0003D0010B107E0012010BD002084F83C0058
:100DF000204600F023F8022084F83D00211D2068E1
:100E000000F000FA012084F8480084F83E0084F8DD
:100E10003F0084F8400084F8410084F8420084F8E0
:100E2000430084F8440084F8450084F8460084F8C0
:100E3000470084F83D00002010BD000008B50068A0
:100E40000649884208D10648C16941F00401C161E0
:100E5000C06900F00400009008BD000000080040D8
:100E60000010024090F83D10012901D00120704788
:100E7000022180F83D1000680F4988420ED0B0F181
:100E8000804F0BD00D49884208D00D49884205D0CB
:100E90000C49884202D00C49884207D181680B4A2C
:100EA0001140062906D0B1F5803F03D0016841F01A
:100EB0000101016000207047002C01400004004047
:100EC00000080040003401400040014007000100DC
:100ED00070B5044690F83C00012817D0012584F82D
:100EE0003C50022084F83D00226890682E4B184048
:100EF00020F47F4090600868502830D00DDC202816
:100F00004DD005DC98B310283BD148E0022070BDDD
:100F1000302844D0402834D139E0602828D07028C7
:100F200006D0B0F5805F2CD0B0F5005F29D10AE083
:100F3000CB68D1E90121206800F0BCF92068816804
:100F400041F0770109E0CB68D1E90121206800F088
:100F5000B1F92068816841F48041816011E0CA687C
:100F60004968206800F0B8F95021206807E016E0D1
:100F7000CA684968206800F0C0F96021206800F064
:100F8000A3F984F83D50002084F83C0070BDCA6885
:100F90004968206800F0A0F940212068EFE7226846
:100FA00001461046EBE7000088FFFEFFFEE7000069
:100FB00070B50B4D0446002201212846FFF764FA64
:100FC000002202212846FFF75FFA04F0F00000F04B
:100FD00009F82007000E00F005F8002070BD0000A1
:100FE0000004004810B586B0044618216846FFF793
:100FF0002FF9E0090090C4F380100190C4F3401071
:101000000290C4F300100390009808B1012200E0A0
:101010000022174C08212046FFF736FA019808B144
:10102000012200E0002204212046FFF72DFA029859
:1010300008B1012200E0002202212046FFF724FA35
:10104000039808B1012200E0002201212046FFF7A9
:101050001BFA084C012204212046FFF715FA002252
:1010600004212046FFF710FA06B0002010BD000052
:1010700000080048000400482DE9F04387B014211F
:101080006846FFF7E5F82B48416941F400214161CA
:10109000416901F400210591416941F480014161F8
:1010A000416901F480010591416941F48021416168
:1010B000416901F480210591416941F400114161C8
:1010C00040691D4F00F40010059000220F213846A2
:1010D000FFF7DAF9DFF86480002207214046FFF7C6
:1010E000D3F9DFF85C904FF40256002231464846AF
:1010F000FFF7CAF90F20009001250024CDE9015423
:10110000694638460394FFF7E3F807200090CDE9DD
:101110000154694640460394FFF7DAF80096CDE99A
:101120000154694648460394FFF7D2F807B0BDE87A
:10113000F08300000010024000080048000400484E
:101140000010004810B588B00024124800940194A3
:1011500002940394049405940D4906940160472178
:10116000C0E901144FF6FE71C0E903148461FFF772
:1011700033FE4FF48050009069460648FFF7A8FE02
:10118000049404A903480694FFF7DEFD08B010BDDF
:101190000008004010000020FEE7704770477047CD
:1011A000FFF77EB930B58FB028216846FFF750F8B9
:1011B00014210AA8FFF74CF801204FF4A0210024C5
:1011C0008DE81300049002250004CDE907504FF488
:1011D000E01009906846FFF7BFFA0F20CDE90A0535
:1011E0006802CDE90C4002210AA80E94FFF7DAF953
:1011F0000FB030BD0248016841F4700101607047D2
:1012000088ED00E02DE9F0430268234B234D244E86
:10121000244C4FF08049984207D0484505D0A84259
:1012200003D0B04201D0A04203D122F070074A6837
:101230003A431D4FDFF874C0DFF8748098420DD038
:1012400048450BD0A84209D0B04207D0A04205D0F3
:10125000B84203D0604501D0404503D122F4407527
:10126000CA682A434D6922F080022A4302608A68D4
:10127000C2620A688262984207D0A04205D0B84292
:1012800003D0604501D0404501D1096901630121C6
:101290004161BDE8F0830000002C014000040040E3
:1012A000000800400034014000400140004401407B
:1012B0000048014010B5846842EA032224F47F44C8
:1012C0000A432243826010BD826822F070020A4302
:1012D00042F007018160704710B5036A046A24F088
:1012E00001040462846924F0F00444EA021423F047
:1012F0000A020A438461026210BD10B5036A23F03A
:10130000100303628369046A23F4704343EA0232E0
:1013100024F0A00343EA01118261016210BDFEE7DF
:101320000907090E002804DB00F1E02080F8001412
:10133000704700F00F0000F1E02080F8141D7047A6
:1013400002E008C8121F08C1002AFAD1704770478E
:10135000002001E001C1121F002AFBD170470000EC
:10136000044900220B685A6209684A6A8242FCD327
:101370007047000010000020FFF79AF8FFF712FFF7
:10138000FFF77AFEFFF7DEFE2548FFF76BFD254CE1
:10139000002201212046FFF777F800220221204693
:1013A000FFF772F8002204212046FFF76DF80122B2
:1013B00080211D48FFF768F80F20FEF777FF3020E7
:1013C000FFF710FE0520FEF771FF3020FFF70AFE41
:1013D0006420FFF7C5FF3020FFF704FE6420FFF70D
:1013E000BFFF2020FFF7FEFD6420FFF7B9FF282094
:1013F000FFF7DEFD2720FFF7B3FF0F20FFF7D8FD33
:101400002720FFF7ADFF0120FFF7D2FD0220FEF7F6
:101410004DFF0620FFF7CCFD2720FFF7A1FFFEE7D9
:1014200010000020000400480010004802030405DA
:10143000060708090A0B0C0D0E0F10100102030419
:1014400005060708090A0B0C0D0E0F10000000001E
:101450000000000001020304060708097C140008CC
:101460000000002010000000401300088C14000849
:10147000100000205004000050130008010000007C
:0C148000100000000000000000127A00C4
:040000050800018965
:00000001FF
